{
  "_format": "hh-sol-artifact-1",
  "contractName": "Bank",
  "sourceName": "contracts/Temp.sol",
  "abi": [
    {
      "inputs": [],
      "stateMutability": "nonpayable",
      "type": "constructor"
    },
    {
      "inputs": [
        {
          "internalType": "address",
          "name": "",
          "type": "address"
        }
      ],
      "name": "balances",
      "outputs": [
        {
          "internalType": "uint256",
          "name": "",
          "type": "uint256"
        }
      ],
      "stateMutability": "view",
      "type": "function"
    },
    {
      "inputs": [],
      "name": "contractBalance",
      "outputs": [
        {
          "internalType": "uint256",
          "name": "",
          "type": "uint256"
        }
      ],
      "stateMutability": "view",
      "type": "function"
    },
    {
      "inputs": [],
      "name": "owner",
      "outputs": [
        {
          "internalType": "address",
          "name": "",
          "type": "address"
        }
      ],
      "stateMutability": "view",
      "type": "function"
    },
    {
      "inputs": [
        {
          "internalType": "address payable",
          "name": "_from",
          "type": "address"
        },
        {
          "internalType": "address payable",
          "name": "_to",
          "type": "address"
        },
        {
          "internalType": "uint256",
          "name": "_amount",
          "type": "uint256"
        }
      ],
      "name": "transferEther",
      "outputs": [],
      "stateMutability": "payable",
      "type": "function"
    }
  ],
  "bytecode": "0x608060405234801561001057600080fd5b50336000806101000a81548173ffffffffffffffffffffffffffffffffffffffff021916908373ffffffffffffffffffffffffffffffffffffffff160217905550610645806100606000396000f3fe60806040526004361061003f5760003560e01c80630e96127a1461004457806327e235e3146100605780638b7afe2e1461009d5780638da5cb5b146100c8575b600080fd5b61005e600480360381019061005991906103e9565b6100f3565b005b34801561006c57600080fd5b506100876004803603810190610082919061047a565b61027d565b60405161009491906104b6565b60405180910390f35b3480156100a957600080fd5b506100b2610295565b6040516100bf91906104b6565b60405180910390f35b3480156100d457600080fd5b506100dd61032c565b6040516100ea91906104e0565b60405180910390f35b80600160008573ffffffffffffffffffffffffffffffffffffffff1673ffffffffffffffffffffffffffffffffffffffff168152602001908152602001600020541015610184576000600160008573ffffffffffffffffffffffffffffffffffffffff1673ffffffffffffffffffffffffffffffffffffffff168152602001908152602001600020819055506101db565b80600160008573ffffffffffffffffffffffffffffffffffffffff1673ffffffffffffffffffffffffffffffffffffffff16815260200190815260200160002060008282546101d3919061052a565b925050819055505b80600160008473ffffffffffffffffffffffffffffffffffffffff1673ffffffffffffffffffffffffffffffffffffffff168152602001908152602001600020600082825461022a919061055e565b925050819055508173ffffffffffffffffffffffffffffffffffffffff166108fc829081150290604051600060405180830381858888f19350505050158015610277573d6000803e3d6000fd5b50505050565b60016020528060005260406000206000915090505481565b60008060009054906101000a900473ffffffffffffffffffffffffffffffffffffffff1673ffffffffffffffffffffffffffffffffffffffff163373ffffffffffffffffffffffffffffffffffffffff1614610326576040517f08c379a000000000000000000000000000000000000000000000000000000000815260040161031d906105ef565b60405180910390fd5b47905090565b60008054906101000a900473ffffffffffffffffffffffffffffffffffffffff1681565b600080fd5b600073ffffffffffffffffffffffffffffffffffffffff82169050919050565b600061038082610355565b9050919050565b61039081610375565b811461039b57600080fd5b50565b6000813590506103ad81610387565b92915050565b6000819050919050565b6103c6816103b3565b81146103d157600080fd5b50565b6000813590506103e3816103bd565b92915050565b60008060006060848603121561040257610401610350565b5b60006104108682870161039e565b93505060206104218682870161039e565b9250506040610432868287016103d4565b9150509250925092565b600061044782610355565b9050919050565b6104578161043c565b811461046257600080fd5b50565b6000813590506104748161044e565b92915050565b6000602082840312156104905761048f610350565b5b600061049e84828501610465565b91505092915050565b6104b0816103b3565b82525050565b60006020820190506104cb60008301846104a7565b92915050565b6104da8161043c565b82525050565b60006020820190506104f560008301846104d1565b92915050565b7f4e487b7100000000000000000000000000000000000000000000000000000000600052601160045260246000fd5b6000610535826103b3565b9150610540836103b3565b9250828203905081811115610558576105576104fb565b5b92915050565b6000610569826103b3565b9150610574836103b3565b925082820190508082111561058c5761058b6104fb565b5b92915050565b600082825260208201905092915050565b7f4f6e6c79206f776e65722063616e20636865636b207468652062616c616e6365600082015250565b60006105d9602083610592565b91506105e4826105a3565b602082019050919050565b60006020820190508181036000830152610608816105cc565b905091905056fea264697066735822122060f79ec6fa25c4a9702835f25f7b42e9cc959c9f41b770c98c3fda8e06f3e03964736f6c63430008120033",
  "linkReferences": {},
  "deployedLinkReferences": {}
}