{
  "_format": "hh-sol-artifact-1",
  "contractName": "Arithmetic",
  "sourceName": "contracts/Arithmetic.sol",
  "abi": [
    {
      "inputs": [
        {
          "internalType": "uint256",
          "name": "x",
          "type": "uint256"
        },
        {
          "internalType": "uint256",
          "name": "y",
          "type": "uint256"
        }
      ],
      "name": "add",
      "outputs": [],
      "stateMutability": "nonpayable",
      "type": "function"
    },
    {
      "inputs": [
        {
          "internalType": "uint256",
          "name": "",
          "type": "uint256"
        }
      ],
      "name": "arr",
      "outputs": [
        {
          "internalType": "uint256",
          "name": "",
          "type": "uint256"
        }
      ],
      "stateMutability": "view",
      "type": "function"
    },
    {
      "inputs": [
        {
          "internalType": "uint256",
          "name": "x",
          "type": "uint256"
        },
        {
          "internalType": "uint256",
          "name": "y",
          "type": "uint256"
        }
      ],
      "name": "divide",
      "outputs": [],
      "stateMutability": "nonpayable",
      "type": "function"
    },
    {
      "inputs": [
        {
          "internalType": "uint256",
          "name": "x",
          "type": "uint256"
        },
        {
          "internalType": "uint256",
          "name": "y",
          "type": "uint256"
        }
      ],
      "name": "multiply",
      "outputs": [],
      "stateMutability": "nonpayable",
      "type": "function"
    },
    {
      "inputs": [],
      "name": "result",
      "outputs": [
        {
          "internalType": "uint256",
          "name": "",
          "type": "uint256"
        }
      ],
      "stateMutability": "view",
      "type": "function"
    },
    {
      "inputs": [
        {
          "internalType": "uint256",
          "name": "x",
          "type": "uint256"
        },
        {
          "internalType": "uint256",
          "name": "y",
          "type": "uint256"
        }
      ],
      "name": "subtract",
      "outputs": [],
      "stateMutability": "nonpayable",
      "type": "function"
    }
  ],
  "bytecode": "0x608060405234801561001057600080fd5b50610554806100206000396000f3fe608060405234801561001057600080fd5b50600436106100625760003560e01c8063165c4a16146100675780633ef5e44514610083578063653721471461009f57806371e5ee5f146100bd578063771602f7146100ed578063f88e9fbf14610109575b600080fd5b610081600480360381019061007c91906102d1565b610125565b005b61009d600480360381019061009891906102d1565b610166565b005b6100a76101a7565b6040516100b49190610320565b60405180910390f35b6100d760048036038101906100d2919061033b565b6101ad565b6040516100e49190610320565b60405180910390f35b610107600480360381019061010291906102d1565b6101d1565b005b610123600480360381019061011e91906102d1565b610212565b005b80826101319190610397565b600081905550600160005490806001815401808255809150506001900390600052602060002001600090919091909150555050565b808261017291906103d9565b600081905550600160005490806001815401808255809150506001900390600052602060002001600090919091909150555050565b60005481565b600181815481106101bd57600080fd5b906000526020600020016000915090505481565b80826101dd919061040d565b600081905550600160005490806001815401808255809150506001900390600052602060002001600090919091909150555050565b60008103610255576040517f08c379a000000000000000000000000000000000000000000000000000000000815260040161024c9061049e565b60405180910390fd5b808261026191906104ed565b600081905550600160005490806001815401808255809150506001900390600052602060002001600090919091909150555050565b600080fd5b6000819050919050565b6102ae8161029b565b81146102b957600080fd5b50565b6000813590506102cb816102a5565b92915050565b600080604083850312156102e8576102e7610296565b5b60006102f6858286016102bc565b9250506020610307858286016102bc565b9150509250929050565b61031a8161029b565b82525050565b60006020820190506103356000830184610311565b92915050565b60006020828403121561035157610350610296565b5b600061035f848285016102bc565b91505092915050565b7f4e487b7100000000000000000000000000000000000000000000000000000000600052601160045260246000fd5b60006103a28261029b565b91506103ad8361029b565b92508282026103bb8161029b565b915082820484148315176103d2576103d1610368565b5b5092915050565b60006103e48261029b565b91506103ef8361029b565b925082820390508181111561040757610406610368565b5b92915050565b60006104188261029b565b91506104238361029b565b925082820190508082111561043b5761043a610368565b5b92915050565b600082825260208201905092915050565b7f43616e6e6f7420646976696465206279207a65726f0000000000000000000000600082015250565b6000610488601583610441565b915061049382610452565b602082019050919050565b600060208201905081810360008301526104b78161047b565b9050919050565b7f4e487b7100000000000000000000000000000000000000000000000000000000600052601260045260246000fd5b60006104f88261029b565b91506105038361029b565b925082610513576105126104be565b5b82820490509291505056fea264697066735822122005f3bf058c417ca27e07aaa934fc0c22089d719f48fe45d8b8b677df417bfbed64736f6c63430008120033",
  "linkReferences": {},
  "deployedLinkReferences": {}
}